:100000000200CA806E780179007A007B227D0B7C29
:100010000012008B792C87A0759000752000E520D8
:1000200024F55002800280028040309002800280DD
:10003000297422A920780029F987A0752100E521DB
:1000400024CE500280028002800E80000521E5212E
:1000500024CE5002800280F28004792C87A00520F3
:10006000E52024F55002800280C080AF792C87A063
:1000700080FE228090898288838B00EC4D6036E47C
:10008000E0F608A31DBDFFF31C80F0B800118B0043
:10009000EC4D6021E7F609081DBDFFF41C80F189D5
:1000A0008288838B00EC4D600CE493F608A31DBDA1
:1000B000FFF31C80F022E4F5D075812D78207A0DB5
:0D00C000F608DAFC1200030200000200B690
:0B010000C0F9A4B0999282F88090FF33
:00000001FF
