:1000000002098F020978E4F522F523758901752428
:1000100000752501752602752704752808752910B5
:10002000752A20752B40752C80852490E523452268
:10003000700280030201BFE5252527F590800805A1
:1000400021E5217002052030B002800EE521243C1C
:10005000E52064803476500480008004800080DFD6
:1000600030B0128000E52324FBE5226480347F4019
:1000700004800080048000801B0523E523700205B6
:1000800022E523B40407E522B4000280028005E4DF
:10009000F522F523E4F520F521E5262528F59080C5
:1000A000080521E5217002052030B002800EE5210F
:1000B0002418E5206480347C500480008004800093
:1000C00080DF30B0128000E52324FBE52264803419
:1000D0007F4004800080048000801B0523E523709E
:1000E000020522E523B40407E522B4000280028061
:1000F00005E4F522F523E4F520F521E529252BF586
:100100009080080521E5217002052030B002800EA4
:10011000E5212418E5206480347C500480008004AC
:10012000800080DF30B0128000E52324FBE52264EC
:1001300080347F4004800080048000801B0523E51C
:100140002370020522E523B40407E522B4000280EF
:10015000028005E4F522F523E4F520F521E52A25C2
:100160002CF59080080521E5217002052030B002B1
:10017000800EE521243CE520648034765004800024
:100180008004800080DF30B0128000E52324FBE58E
:10019000226480347F4004800080048000801B053E
:1001A00023E52370020522E523B40407E522B40009
:1001B0000280028005E4F522F523E4F520F521E52F
:1001C00023B40107E522B400028003020356E525AB
:1001D000252CF59080080521E5217002052030B01E
:1001E00002800EE5212418E5206480347C500480D0
:1001F000008004800080DF30B0128000E52324FB03
:10020000E5226480347F4004800080048000801BED
:100210000523E52370020522E523B40407E522B493
:10022000000280028005E4F522F523E4F520F521A3
:10023000E526252BF59080080521E5217002052093
:1002400030B002800EE5212418E5206480347C5013
:100250000480008004800080DF30B0128000E5233D
:1002600024FBE5226480347F400480008004800009
:10027000801B0523E52370020522E523B40407E56E
:1002800022B4000280028005E4F522F523E4F52083
:10029000F521E527252AF59080080521E521700242
:1002A000052030B002800EE5212418E5206480345A
:1002B0007C500480008004800080DF30B012800019
:1002C000E52324FBE5226480347F40048000800421
:1002D0008000801B0523E52370020522E523B4047A
:1002E00007E522B4000280028005E4F522F523E44C
:1002F000F520F521E5282529F59080080521E5213F
:100300007002052030B002800EE5212418E520643B
:1003100080347C500480008004800080DF30B01284
:100320008000E52324FBE5226480347F40048000C4
:1003300080048000801B0523E52370020522E5234D
:10034000B40407E522B4000280028005E4F522F53A
:1003500023E4F520F521E523B40207E522B40002E9
:1003600080030206657925879080080521E52170C4
:1003700002052030B002800EE521240CE5206480C7
:10038000347E500480008004800080DF30B0128012
:1003900000E52324FBE5226480347F400480008054
:1003A000048000801B0523E52370020522E523B4A9
:1003B0000407E522B4000280028005E4F522F5235B
:1003C000E4F520F5217926879080080521E5217044
:1003D00002052030B002800EE521240CE520648067
:1003E000347E500480008004800080DF30B01280B2
:1003F00000E52324FBE5226480347F4004800080F4
:10040000048000801B0523E52370020522E523B448
:100410000407E522B4000280028005E4F522F523FA
:10042000E4F520F5217927879080080521E52170E2
:1004300002052030B002800EE521240CE520648006
:10044000347E500480008004800080DF30B0128051
:1004500000E52324FBE5226480347F400480008093
:10046000048000801B0523E52370020522E523B4E8
:100470000407E522B4000280028005E4F522F5239A
:10048000E4F520F5217928879080080521E5217081
:1004900002052030B002800EE521240CE5206480A6
:1004A000347E500480008004800080DF30B01280F1
:1004B00000E52324FBE5226480347F400480008033
:1004C000048000801B0523E52370020522E523B488
:1004D0000407E522B4000280028005E4F522F5233A
:1004E000E4F520F5217929879080080521E5217020
:1004F00002052030B002800EE521240CE520648046
:10050000347E500480008004800080DF30B0128090
:1005100000E52324FBE5226480347F4004800080D2
:10052000048000801B0523E52370020522E523B427
:100530000407E522B4000280028005E4F522F523D9
:10054000E4F520F521792A879080080521E52170BE
:1005500002052030B002800EE521240CE5206480E5
:10056000347E500480008004800080DF30B0128030
:1005700000E52324FBE5226480347F400480008072
:10058000048000801B0523E52370020522E523B4C7
:100590000407E522B4000280028005E4F522F52379
:1005A000E4F520F521792B879080080521E521705D
:1005B00002052030B002800EE521240CE520648085
:1005C000347E500480008004800080DF30B01280D0
:1005D00000E52324FBE5226480347F400480008012
:1005E000048000801B0523E52370020522E523B467
:1005F0000407E522B4000280028005E4F522F52319
:10060000E4F520F521792C879080080521E52170FB
:1006100002052030B002800EE521240CE520648024
:10062000347E500480008004800080DF30B012806F
:1006300000E52324FBE5226480347F4004800080B1
:10064000048000801B0523E52370020522E523B406
:100650000407E522B4000280028005E4F522F523B8
:10066000E4F520F521E523B40307E522B400028078
:1006700003020974792A879080080521E521700218
:10068000052030B002800EE5212418E52064803476
:100690007C500480008004800080DF30B012800035
:1006A000E52324FBE5226480347F4004800080043D
:1006B0008000801B0523E52370020522E523B40496
:1006C00007E522B4000280028005E4F522F523E468
:1006D000F520F5217927879080080521E521700212
:1006E000052030B002800EE5212418E52064803416
:1006F0007C500480008004800080DF30B0128000D5
:10070000E52324FBE5226480347F400480008004DC
:100710008000801B0523E52370020522E523B40435
:1007200007E522B4000280028005E4F522F523E407
:10073000F520F521792C879080080521E5217002AC
:10074000052030B002800EE5212418E520648034B5
:100750007C500480008004800080DF30B012800074
:10076000E52324FBE5226480347F4004800080047C
:100770008000801B0523E52370020522E523B404D5
:1007800007E522B4000280028005E4F522F523E4A7
:10079000F520F5217929879080080521E52170024F
:1007A000052030B002800EE5212418E52064803455
:1007B0007C500480008004800080DF30B012800014
:1007C000E52324FBE5226480347F4004800080041C
:1007D0008000801B0523E52370020522E523B40475
:1007E00007E522B4000280028005E4F522F523E447
:1007F000F520F5217926879080080521E5217002F2
:10080000052030B002800EE5212418E520648034F4
:100810007C500480008004800080DF30B0128000B3
:10082000E52324FBE5226480347F400480008004BB
:100830008000801B0523E52370020522E523B40414
:1008400007E522B4000280028005E4F522F523E4E6
:10085000F520F521792B879080080521E52170028C
:10086000052030B002800EE5212418E52064803494
:100870007C500480008004800080DF30B012800053
:10088000E52324FBE5226480347F4004800080045B
:100890008000801B0523E52370020522E523B404B4
:1008A00007E522B4000280028005E4F522F523E486
:1008B000F520F5217925879080080521E521700232
:1008C000052030B002800EE5212418E52064803434
:1008D0007C500480008004800080DF30B0128000F3
:1008E000E52324FBE5226480347F400480008004FB
:1008F0008000801B0523E52370020522E523B40454
:1009000007E522B4000280028005E4F522F523E425
:10091000F520F5217928879080080521E5217002CE
:10092000052030B002800EE5212418E520648034D3
:100930007C500480008004800080DF30B012800092
:10094000E52324FBE5226480347F4004800080049A
:100950008000801B0523E52370020522E523B404F3
:1009600007E522B4000280028005E4F522F523E4C5
:10097000F520F52102002C22020006E4F5D0758155
:100980002D78207A0DF608DAFC120003020000022E
:02099000097BE1
:00000001FF
